{
  "contractName": "Owners",
  "abi": [
    {
      "inputs": [],
      "stateMutability": "nonpayable",
      "type": "constructor"
    },
    {
      "anonymous": false,
      "inputs": [
        {
          "indexed": true,
          "internalType": "address",
          "name": "adder",
          "type": "address"
        },
        {
          "indexed": true,
          "internalType": "address",
          "name": "owner",
          "type": "address"
        },
        {
          "indexed": true,
          "internalType": "uint256",
          "name": "timestamp",
          "type": "uint256"
        }
      ],
      "name": "OwnerAdded",
      "type": "event"
    },
    {
      "anonymous": false,
      "inputs": [
        {
          "indexed": true,
          "internalType": "address",
          "name": "remover",
          "type": "address"
        },
        {
          "indexed": true,
          "internalType": "address",
          "name": "owner",
          "type": "address"
        },
        {
          "indexed": true,
          "internalType": "uint256",
          "name": "timestamp",
          "type": "uint256"
        }
      ],
      "name": "OwnerRemoved",
      "type": "event"
    },
    {
      "anonymous": false,
      "inputs": [
        {
          "indexed": false,
          "internalType": "uint256",
          "name": "timestamp",
          "type": "uint256"
        }
      ],
      "name": "OwnershipRenounced",
      "type": "event"
    },
    {
      "inputs": [],
      "name": "renounced",
      "outputs": [
        {
          "internalType": "bool",
          "name": "",
          "type": "bool"
        }
      ],
      "stateMutability": "view",
      "type": "function"
    },
    {
      "inputs": [
        {
          "internalType": "address",
          "name": "address_",
          "type": "address"
        }
      ],
      "name": "isOwner",
      "outputs": [
        {
          "internalType": "bool",
          "name": "",
          "type": "bool"
        }
      ],
      "stateMutability": "view",
      "type": "function"
    },
    {
      "inputs": [],
      "name": "getOwners",
      "outputs": [
        {
          "internalType": "address[]",
          "name": "",
          "type": "address[]"
        }
      ],
      "stateMutability": "view",
      "type": "function"
    },
    {
      "inputs": [
        {
          "internalType": "address",
          "name": "address_",
          "type": "address"
        }
      ],
      "name": "addOwner",
      "outputs": [],
      "stateMutability": "nonpayable",
      "type": "function"
    },
    {
      "inputs": [
        {
          "internalType": "address",
          "name": "address_",
          "type": "address"
        }
      ],
      "name": "removeOwner",
      "outputs": [],
      "stateMutability": "nonpayable",
      "type": "function"
    },
    {
      "inputs": [
        {
          "internalType": "string",
          "name": "check",
          "type": "string"
        }
      ],
      "name": "renounceOwnership",
      "outputs": [],
      "stateMutability": "nonpayable",
      "type": "function"
    }
  ],
  "bytecode": "0x608060405234801561001057600080fd5b5060008054610100600160a81b0319163361010081029190911782558082526001602081905260408320805460ff19168217905560028054918201815583527f405787fa12a823e0f2b7631cc41b3ba8828b3321ca811111fa75cd3aa3bb5ace0180546001600160a01b03191690911790556107ff90819061009290396000f3fe608060405234801561001057600080fd5b50600436106100625760003560e01c8063173825d9146100675780632f54bf6e1461008f5780634fdb7f44146100c95780637065cb481461016d578063a0e67e2b14610193578063d232c220146101eb575b600080fd5b61008d6004803603602081101561007d57600080fd5b50356001600160a01b03166101f3565b005b6100b5600480360360208110156100a557600080fd5b50356001600160a01b03166104bf565b604080519115158252519081900360200190f35b61008d600480360360208110156100df57600080fd5b810190602081018135600160201b8111156100f957600080fd5b82018360208201111561010b57600080fd5b803590602001918460018302840111600160201b8311171561012c57600080fd5b91908080601f0160208091040260200160405190810160405280939291908181526020018383808284376000920191909152509295506104dd945050505050565b61008d6004803603602081101561018357600080fd5b50356001600160a01b0316610610565b61019b61070b565b60408051602080825283518183015283519192839290830191858101910280838360005b838110156101d75781810151838201526020016101bf565b505050509050019250505060405180910390f35b6100b561076d565b60005460ff1615610241576040805162461bcd60e51b815260206004820152601360248201527213dddb995c9cda1a5c081c995b9bdd5b98d959606a1b604482015290519081900360640190fd5b60005461010090046001600160a01b0316331461025d57600080fd5b6001600160a01b03811660009081526001602052604090205460ff166102c4576040805162461bcd60e51b815260206004820152601760248201527620b2323932b9b99034b9903737ba1030b71037bbb732b960491b604482015290519081900360640190fd5b6000546001600160a01b0382811661010090920416141561032c576040805162461bcd60e51b815260206004820152601d60248201527f4d6173746572206f776e65722063616e27742062652072656d6f766564000000604482015290519081900360640190fd5b60025460005b60025481101561044057826001600160a01b03166002828154811061035357fe5b6000918252602090912001546001600160a01b03161415610438576001600160a01b0383166000908152600160205260409020805460ff19169055805b6002546000190181101561040557600282600101815481106103ae57fe5b600091825260209091200154600280546001600160a01b0390921691849081106103d457fe5b600091825260209091200180546001600160a01b0319166001600160a01b0392909216919091179055600101610390565b50600280548061041157fe5b600082815260209020810160001990810180546001600160a01b0319169055019055610440565b600101610332565b506002548181106104825760405162461bcd60e51b81526004018080602001828103825260248152602001806107a66024913960400191505060405180910390fd5b60405142906001600160a01b0385169033907fecc5dd9888b87e7ed252d66b9c086ab819de6c8f8b96c8e5458e105bacfbb02790600090a4505050565b6001600160a01b031660009081526001602052604090205460ff1690565b60005460ff161561052b576040805162461bcd60e51b815260206004820152601360248201527213dddb995c9cda1a5c081c995b9bdd5b98d959606a1b604482015290519081900360640190fd5b60005461010090046001600160a01b0316331461054757600080fd5b604080518082019091526007815266636f6e6669726d60c81b6020808301919091528251908301207faf73a30c1d2422d0e18092aa930404dfd05f0bc488ba9fb71e17c35104c9c5b6146105cc5760405162461bcd60e51b815260040180806020018281038252602f815260200180610777602f913960400191505060405180910390fd5b6000805460ff191660011790556040805142815290517f7738dc8b7a10a5636dceada812073a582b717ce047d82cd0e4918662b2e7c7739181900360200190a15050565b60005460ff161561065e576040805162461bcd60e51b815260206004820152601360248201527213dddb995c9cda1a5c081c995b9bdd5b98d959606a1b604482015290519081900360640190fd5b60005461010090046001600160a01b0316331461067a57600080fd5b6001600160a01b0381166000818152600160208190526040808320805460ff19168317905560028054928301815583527f405787fa12a823e0f2b7631cc41b3ba8828b3321ca811111fa75cd3aa3bb5ace90910180546001600160a01b031916841790555142929133917fa0b18fca933618876351ba2ef88bf4505c184d3e55064bec0d7fe236dd706d849190a450565b6060600280548060200260200160405190810160405280929190818152602001828054801561076357602002820191906000526020600020905b81546001600160a01b03168152600190910190602001808311610745575b5050505050905090565b60005460ff168156fe43616e27742072656e6f756e636520776974686f75742027636f6e6669726d27206173206120706172616d65746572536f6d657468696e672077656e742077726f6e672072656d6f76696e67206f776e657273a26469706673582212201ad8cdace81f0e8c6499eec497ec220588b9a1d70a6bfcf850bf2268a172e61b64736f6c63430007060033",
  "immutableReferences": {},
  "source": "// SPDX-License-Identifier: MIT\r\n\r\npragma solidity >=0.4.22 <0.9.0;\r\n\r\ncontract Owners {\r\n\tevent OwnerAdded(\r\n\t\taddress indexed adder,\r\n\t\taddress indexed owner,\r\n\t\tuint256 indexed timestamp\r\n\t);\r\n\r\n\tevent OwnerRemoved(\r\n\t\taddress indexed remover,\r\n\t\taddress indexed owner,\r\n\t\tuint256 indexed timestamp\r\n\t);\r\n\r\n\tevent OwnershipRenounced(uint256 timestamp);\r\n\r\n\tbool public renounced;\r\n\r\n\taddress private masterOwner;\r\n\tmapping(address => bool) private ownerMap;\r\n\taddress[] private ownerList;\r\n\r\n\tconstructor() {\r\n\t\tmasterOwner = msg.sender;\r\n\t\townerMap[msg.sender] = true;\r\n\t\townerList.push(msg.sender);\r\n\t}\r\n\r\n\tmodifier onlyMasterOwner() {\r\n\t\trequire(!renounced, \"Ownership renounced\");\r\n\t\trequire(msg.sender == masterOwner);\r\n\t\t_;\r\n\t}\r\n\r\n\tmodifier onlyOwners() {\r\n\t\trequire(!renounced, \"Ownership renounced\");\r\n\t\trequire(ownerMap[msg.sender], \"Caller is not an owner\");\r\n\t\t_;\r\n\t}\r\n\r\n\t/// @notice Return whether given address is one of the owners of this contract\r\n\t/// @param address_ Address to check\r\n\t/// @return True/False\r\n\tfunction isOwner(address address_) public view returns (bool) {\r\n\t\treturn ownerMap[address_];\r\n\t}\r\n\r\n\t/// @notice Get all addresses of current owners\r\n\t/// @return List of owners\r\n\tfunction getOwners() external view returns (address[] memory) {\r\n\t\treturn ownerList;\r\n\t}\r\n\r\n\t/// @notice Add a new owner, only the master owner can add\r\n\t/// @param address_ Address to add\r\n\tfunction addOwner(address address_) public onlyMasterOwner {\r\n\t\townerMap[address_] = true;\r\n\t\townerList.push(address_);\r\n\t\temit OwnerAdded(msg.sender, address_, block.timestamp);\r\n\t}\r\n\r\n\t/// @notice Remove existing owner, only master owner can remove\r\n\t/// @param address_ Address to remove\r\n\tfunction removeOwner(address address_) public onlyMasterOwner {\r\n\t\trequire(ownerMap[address_], \"Address is not an owner\");\r\n\t\trequire(address_ != masterOwner, \"Master owner can't be removed\");\r\n\t\tuint256 lengthBefore = ownerList.length;\r\n\t\tfor (uint256 i = 0; i < ownerList.length; i++) {\r\n\t\t\tif (ownerList[i] == address_) {\r\n\t\t\t\townerMap[address_] = false;\r\n\t\t\t\tfor (uint256 j = i; j < ownerList.length - 1; j++) {\r\n\t\t\t\t\townerList[i] = ownerList[i + 1];\r\n\t\t\t\t}\r\n\t\t\t\townerList.pop();\r\n\t\t\t\tbreak;\r\n\t\t\t}\r\n\t\t}\r\n\t\tuint256 lengthAfter = ownerList.length;\r\n\t\trequire( // Sanity check\r\n\t\t\tlengthAfter < lengthBefore,\r\n\t\t\t\"Something went wrong removing owners\"\r\n\t\t);\r\n\t\temit OwnerRemoved(msg.sender, address_, block.timestamp);\r\n\t}\r\n\r\n\t/// @notice Let master owner renounce contract\r\n\t/// @param check Requires \"give\" as a parameter to prevent accidental renouncing\r\n\tfunction renounceOwnership(string memory check) external onlyMasterOwner {\r\n\t\tstring memory checkAgainst = \"confirm\";\r\n\t\trequire(\r\n\t\t\tkeccak256(bytes(check)) == keccak256(bytes(checkAgainst)),\r\n\t\t\t\"Can't renounce without 'confirm' as a parameter\"\r\n\t\t);\r\n\t\trenounced = true;\r\n\t\temit OwnershipRenounced(block.timestamp);\r\n\t}\r\n}\r\n",
  "sourcePath": "C:\\Users\\sants\\Desktop\\projects\\shitcoin\\contracts\\Owners.sol",
  "compiler": {
    "name": "solc",
    "version": "0.7.6+commit.7338295f.Emscripten.clang"
  },
  "schemaVersion": "3.4.5",
  "updatedAt": "2022-03-15T17:21:32.348Z",
  "devdoc": {
    "kind": "dev",
    "methods": {
      "addOwner(address)": {
        "params": {
          "address_": "Address to add"
        }
      },
      "getOwners()": {
        "returns": {
          "_0": "List of owners"
        }
      },
      "isOwner(address)": {
        "params": {
          "address_": "Address to check"
        },
        "returns": {
          "_0": "True/False"
        }
      },
      "removeOwner(address)": {
        "params": {
          "address_": "Address to remove"
        }
      },
      "renounceOwnership(string)": {
        "params": {
          "check": "Requires \"give\" as a parameter to prevent accidental renouncing"
        }
      }
    },
    "version": 1
  },
  "userdoc": {
    "kind": "user",
    "methods": {
      "addOwner(address)": {
        "notice": "Add a new owner, only the master owner can add"
      },
      "getOwners()": {
        "notice": "Get all addresses of current owners"
      },
      "isOwner(address)": {
        "notice": "Return whether given address is one of the owners of this contract"
      },
      "removeOwner(address)": {
        "notice": "Remove existing owner, only master owner can remove"
      },
      "renounceOwnership(string)": {
        "notice": "Let master owner renounce contract"
      }
    },
    "version": 1
  }
}