{
  "contractName": "PauseOwners",
  "abi": [
    {
      "anonymous": false,
      "inputs": [
        {
          "indexed": true,
          "internalType": "address",
          "name": "adder",
          "type": "address"
        },
        {
          "indexed": true,
          "internalType": "address",
          "name": "owner",
          "type": "address"
        },
        {
          "indexed": true,
          "internalType": "uint256",
          "name": "timestamp",
          "type": "uint256"
        }
      ],
      "name": "OwnerAdded",
      "type": "event"
    },
    {
      "anonymous": false,
      "inputs": [
        {
          "indexed": true,
          "internalType": "address",
          "name": "remover",
          "type": "address"
        },
        {
          "indexed": true,
          "internalType": "address",
          "name": "owner",
          "type": "address"
        },
        {
          "indexed": true,
          "internalType": "uint256",
          "name": "timestamp",
          "type": "uint256"
        }
      ],
      "name": "OwnerRemoved",
      "type": "event"
    },
    {
      "anonymous": false,
      "inputs": [
        {
          "indexed": false,
          "internalType": "uint256",
          "name": "timestamp",
          "type": "uint256"
        }
      ],
      "name": "OwnershipRenounced",
      "type": "event"
    },
    {
      "inputs": [
        {
          "internalType": "address",
          "name": "address_",
          "type": "address"
        }
      ],
      "name": "addOwner",
      "outputs": [],
      "stateMutability": "nonpayable",
      "type": "function"
    },
    {
      "inputs": [],
      "name": "getOwners",
      "outputs": [
        {
          "internalType": "address[]",
          "name": "",
          "type": "address[]"
        }
      ],
      "stateMutability": "view",
      "type": "function"
    },
    {
      "inputs": [
        {
          "internalType": "address",
          "name": "address_",
          "type": "address"
        }
      ],
      "name": "isOwner",
      "outputs": [
        {
          "internalType": "bool",
          "name": "",
          "type": "bool"
        }
      ],
      "stateMutability": "view",
      "type": "function"
    },
    {
      "inputs": [],
      "name": "isPaused",
      "outputs": [
        {
          "internalType": "bool",
          "name": "",
          "type": "bool"
        }
      ],
      "stateMutability": "view",
      "type": "function"
    },
    {
      "inputs": [
        {
          "internalType": "address",
          "name": "address_",
          "type": "address"
        }
      ],
      "name": "removeOwner",
      "outputs": [],
      "stateMutability": "nonpayable",
      "type": "function"
    },
    {
      "inputs": [
        {
          "internalType": "string",
          "name": "check",
          "type": "string"
        }
      ],
      "name": "renounceOwnership",
      "outputs": [],
      "stateMutability": "nonpayable",
      "type": "function"
    },
    {
      "inputs": [],
      "name": "renounced",
      "outputs": [
        {
          "internalType": "bool",
          "name": "",
          "type": "bool"
        }
      ],
      "stateMutability": "view",
      "type": "function"
    },
    {
      "inputs": [
        {
          "internalType": "bool",
          "name": "isPaused_",
          "type": "bool"
        }
      ],
      "name": "setIsPaused",
      "outputs": [],
      "stateMutability": "nonpayable",
      "type": "function"
    }
  ],
  "bytecode": "0x608060405234801561001057600080fd5b5060008054610100600160a81b0319163361010081029190911782558082526001602081905260408320805460ff19168217905560028054918201815583527f405787fa12a823e0f2b7631cc41b3ba8828b3321ca811111fa75cd3aa3bb5ace0180546001600160a01b031916909117905561090390819061009290396000f3fe608060405234801561001057600080fd5b50600436106100785760003560e01c8063173825d91461007d578063240976bf146100a55780632f54bf6e146100c45780634fdb7f44146100fe5780637065cb48146101a2578063a0e67e2b146101c8578063b187bd2614610220578063d232c22014610228575b600080fd5b6100a36004803603602081101561009357600080fd5b50356001600160a01b0316610230565b005b6100a3600480360360208110156100bb57600080fd5b503515156104fc565b6100ea600480360360208110156100da57600080fd5b50356001600160a01b03166105ba565b604080519115158252519081900360200190f35b6100a36004803603602081101561011457600080fd5b810190602081018135600160201b81111561012e57600080fd5b82018360208201111561014057600080fd5b803590602001918460018302840111600160201b8311171561016157600080fd5b91908080601f0160208091040260200160405190810160405280939291908181526020018383808284376000920191909152509295506105d8945050505050565b6100a3600480360360208110156101b857600080fd5b50356001600160a01b031661070b565b6101d0610806565b60408051602080825283518183015283519192839290830191858101910280838360005b8381101561020c5781810151838201526020016101f4565b505050509050019250505060405180910390f35b6100ea610868565b6100ea610871565b60005460ff161561027e576040805162461bcd60e51b815260206004820152601360248201527213dddb995c9cda1a5c081c995b9bdd5b98d959606a1b604482015290519081900360640190fd5b60005461010090046001600160a01b0316331461029a57600080fd5b6001600160a01b03811660009081526001602052604090205460ff16610301576040805162461bcd60e51b815260206004820152601760248201527620b2323932b9b99034b9903737ba1030b71037bbb732b960491b604482015290519081900360640190fd5b6000546001600160a01b03828116610100909204161415610369576040805162461bcd60e51b815260206004820152601d60248201527f4d6173746572206f776e65722063616e27742062652072656d6f766564000000604482015290519081900360640190fd5b60025460005b60025481101561047d57826001600160a01b03166002828154811061039057fe5b6000918252602090912001546001600160a01b03161415610475576001600160a01b0383166000908152600160205260409020805460ff19169055805b6002546000190181101561044257600282600101815481106103eb57fe5b600091825260209091200154600280546001600160a01b03909216918490811061041157fe5b600091825260209091200180546001600160a01b0319166001600160a01b03929092169190911790556001016103cd565b50600280548061044e57fe5b600082815260209020810160001990810180546001600160a01b031916905501905561047d565b60010161036f565b506002548181106104bf5760405162461bcd60e51b81526004018080602001828103825260248152602001806108aa6024913960400191505060405180910390fd5b60405142906001600160a01b0385169033907fecc5dd9888b87e7ed252d66b9c086ab819de6c8f8b96c8e5458e105bacfbb02790600090a4505050565b60005460ff161561054a576040805162461bcd60e51b815260206004820152601360248201527213dddb995c9cda1a5c081c995b9bdd5b98d959606a1b604482015290519081900360640190fd5b3360009081526001602052604090205460ff166105a7576040805162461bcd60e51b815260206004820152601660248201527521b0b63632b91034b9903737ba1030b71037bbb732b960511b604482015290519081900360640190fd5b6003805460ff1916911515919091179055565b6001600160a01b031660009081526001602052604090205460ff1690565b60005460ff1615610626576040805162461bcd60e51b815260206004820152601360248201527213dddb995c9cda1a5c081c995b9bdd5b98d959606a1b604482015290519081900360640190fd5b60005461010090046001600160a01b0316331461064257600080fd5b604080518082019091526007815266636f6e6669726d60c81b6020808301919091528251908301207faf73a30c1d2422d0e18092aa930404dfd05f0bc488ba9fb71e17c35104c9c5b6146106c75760405162461bcd60e51b815260040180806020018281038252602f81526020018061087b602f913960400191505060405180910390fd5b6000805460ff191660011790556040805142815290517f7738dc8b7a10a5636dceada812073a582b717ce047d82cd0e4918662b2e7c7739181900360200190a15050565b60005460ff1615610759576040805162461bcd60e51b815260206004820152601360248201527213dddb995c9cda1a5c081c995b9bdd5b98d959606a1b604482015290519081900360640190fd5b60005461010090046001600160a01b0316331461077557600080fd5b6001600160a01b0381166000818152600160208190526040808320805460ff19168317905560028054928301815583527f405787fa12a823e0f2b7631cc41b3ba8828b3321ca811111fa75cd3aa3bb5ace90910180546001600160a01b031916841790555142929133917fa0b18fca933618876351ba2ef88bf4505c184d3e55064bec0d7fe236dd706d849190a450565b6060600280548060200260200160405190810160405280929190818152602001828054801561085e57602002820191906000526020600020905b81546001600160a01b03168152600190910190602001808311610840575b5050505050905090565b60035460ff1681565b60005460ff168156fe43616e27742072656e6f756e636520776974686f75742027636f6e6669726d27206173206120706172616d65746572536f6d657468696e672077656e742077726f6e672072656d6f76696e67206f776e657273a2646970667358221220d9747d2a9c62592ceaf6259f80989836f5226e8b2e749c9f1b6810660f86cc2164736f6c63430007060033",
  "immutableReferences": {},
  "source": "// SPDX-License-Identifier: MIT\r\n\r\npragma solidity >=0.4.22 <0.9.0;\r\n\r\nimport \"./Owners.sol\";\r\n\r\ncontract PauseOwners is Owners {\r\n    bool public isPaused;\r\n\r\n    modifier checkPaused(address address_) {\r\n        if (!isOwner(address_)) {\r\n            require(!isPaused, \"Contract paused\");\r\n        }\r\n        _;\r\n    }\r\n\r\n    /// @notice Pause any functions which use checkPaused modifier\r\n    /// @param isPaused_ True to pause false to unpause\r\n    function setIsPaused(bool isPaused_) public onlyOwners {\r\n        isPaused = isPaused_;\r\n    }\r\n}\r\n",
  "sourcePath": "C:\\Users\\sants\\Desktop\\projects\\shitcoin\\contracts\\PauseOwners.sol",
  "compiler": {
    "name": "solc",
    "version": "0.7.6+commit.7338295f.Emscripten.clang"
  },
  "schemaVersion": "3.4.5",
  "updatedAt": "2022-03-15T17:21:32.355Z",
  "devdoc": {
    "kind": "dev",
    "methods": {
      "addOwner(address)": {
        "params": {
          "address_": "Address to add"
        }
      },
      "getOwners()": {
        "returns": {
          "_0": "List of owners"
        }
      },
      "isOwner(address)": {
        "params": {
          "address_": "Address to check"
        },
        "returns": {
          "_0": "True/False"
        }
      },
      "removeOwner(address)": {
        "params": {
          "address_": "Address to remove"
        }
      },
      "renounceOwnership(string)": {
        "params": {
          "check": "Requires \"give\" as a parameter to prevent accidental renouncing"
        }
      },
      "setIsPaused(bool)": {
        "params": {
          "isPaused_": "True to pause false to unpause"
        }
      }
    },
    "version": 1
  },
  "userdoc": {
    "kind": "user",
    "methods": {
      "addOwner(address)": {
        "notice": "Add a new owner, only the master owner can add"
      },
      "getOwners()": {
        "notice": "Get all addresses of current owners"
      },
      "isOwner(address)": {
        "notice": "Return whether given address is one of the owners of this contract"
      },
      "removeOwner(address)": {
        "notice": "Remove existing owner, only master owner can remove"
      },
      "renounceOwnership(string)": {
        "notice": "Let master owner renounce contract"
      },
      "setIsPaused(bool)": {
        "notice": "Pause any functions which use checkPaused modifier"
      }
    },
    "version": 1
  }
}